:1000000009C016C015C014C013C012C012C058C019
:100010000FC060C011241FBECFE9CDBF10E0A0E625
:10002000B0E001C01D92AC36B107E1F787D012C134
:10003000E7CF1F920F920FB60F9211248F939F93C9
:1000400080916500882329F1809166008150F9F440
:10005000809168009091690080FF02C0C09801C043
:10006000C09A8091680090916900969587959093C9
:1000700069008093680080916700815080936700D9
:1000800080916700882311F41092650083E08093CB
:10009000660080916300813019F4369A10926300F3
:1000A000809160009091610001969093610080932F
:1000B00060009F918F910F900FBE0F901F90189529
:1000C0001F920F920FB60F9211240F900FBE0F9038
:1000D0001F9018951F920F920FB60F9211248F93B5
:1000E00081E0809362008F910F900FBE0F901F9060
:1000F0001895982F809165008823E1F783E080931D
:1001000066008AE080936700892F90E0880F991F2E
:100110009260909369008093680081E0809365000D
:10012000089583E487B984E886B988E084BB369A69
:100130003699FECF83E083B9339A0895FF920F93E7
:100140001F93DF93CF9300D0CDB7DEB78FE028E1C8
:1001500030E00FB6F894A89521BD0FBE81BDA895DB
:1001600087E387BBE199FECF1EBAE09A8DB38093F7
:100170006400C29AC49A10926500C09A10926200FC
:1001800010926300CEDF9FB7F89483E886BD85EABE
:1001900086BF19BC81E28FBD89E083BF89B78460C7
:1001A00089BF12BE9FBF7894FF24F39480916200B0
:1001B000813009F040C01092620084B18A8385B119
:1001C000898389819A81182F00E09801290F311DB8
:1001D00030936B0020936A008EE28BDF80916A007F
:1001E00090916B00815C924020F0C2988EE381DF99
:1001F00001C0C29A80916A0090916B008F59924021
:1002000040F08BE276DF89B5853A48F489B58F5F97
:1002100005C089B5882319F089B5815089BD8091C1
:100220006A0090916B008D5D914020F488E761DF5A
:10023000C49801C0C49A8091600090916100885672
:10024000914030F01092610010926000F0926300D3
:08025000A895ACCFF894FFCF94
:00000001FF
