:1000000009C016C015C014C013C012C012C058C019
:100010000FC060C011241FBECFE9CDBF10E0A0E625
:10002000B0E001C01D92A237B107E1F79BD0E2C159
:10003000E7CF1F920F920FB60F9211248F939F93C9
:1000400080916500882329F1809166008150F9F440
:10005000809168009091690080FF02C0C29A01C03F
:10006000C2988091680090916900969587959093C9
:1000700069008093680080916700815080936700D9
:1000800080916700882311F41092650083E08093CB
:10009000660080916300813019F4369A10926300F3
:1000A000809160009091610001969093610080932F
:1000B00060009F918F910F900FBE0F901F90189529
:1000C0001F920F920FB60F9211240F900FBE0F9038
:1000D0001F9018951F920F920FB60F9211248F93B5
:1000E00081E0809362008F910F900FBE0F901F9060
:1000F0001895982F809165008823E1F783E080931D
:1001000066008AE080936700892F90E0880F991F2E
:100110009260909369008093680081E0809365000D
:100120000895CF93DF93EC0102C02196E2DF88812E
:100130008823D9F7DF91CF91089583E487B984E8C4
:1001400086B988E084BB369A3699FECF83E083B9BE
:10015000339A0895E199FECF1CBA8EBB6DBBE29A2B
:10016000E19A08953F924F925F926F927F928F92A1
:100170009F92AF92BF92CF92DF92EF92FF920F9336
:100180001F93DF93CF9300D000D0CDB7DEB78FE0C1
:1001900028E130E00FB6F894A89521BD0FBE81BDCF
:1001A000A89587E387BBE199FECF1EBAE09A8DB38D
:1001B00080936400C09AC49A10926500C29A10920B
:1001C000620010926300B9DF9FB7F89483E886BDA0
:1001D00085EA86BF19BC81E28FBD89E083BF89B7FC
:1001E000846089BF12BE9FBFE199FECF81E08EBBC4
:1001F000E09A8DB3813079F4E199FECF82E08EBB35
:10020000E09A8DB38983E199FECF83E08EBBE09ABB
:100210008DB38A8310C0369A3699FECF84B18A8313
:1002200085B18983698182E095DF6A8183E092DF0D
:1002300081E061E08FDF29813A81922F80E0830F96
:10024000911D62E370E0B0D06CE471E0BFD07B013F
:100250007894CB0160E971E0A7D04C01C70167E752
:1002600071E0A2D05C01C70168E171E09DD06C0132
:100270007EE3372E6DE2462E50E3652E4DE0542E80
:100280007724739480916200813009F07EC01092CF
:10029000620084B18A8385B1898389819A81182F0C
:1002A00000E09801290F311D3C832B838B819C81B9
:1002B00062E370E079D09C838B838B819C8188166C
:1002C000990610F02EE409C0C098C49A89B5853A01
:1002D00018F489B58F5F89BD21E58B819C81A816B3
:1002E000B90670F48B819C818816990648F0C098F5
:1002F000C49A89B5853A18F489B58F5F89BD2FE412
:100300008B819C81A816B90660F08B819C818C152D
:100310009D0538F089B5882319F089B5815089BDCC
:1003200023E68B819C818C159D0518F4C498C09A96
:100330002DE430926A0020936B0040926C008B8118
:100340009C81B70143D07F707A3010F4705D01C09A
:10035000795C70936D008B819C81B70137D034E05C
:10036000769567953A95E1F76F706A3010F4605DA5
:1003700001C0695C60936E0060926F0050927000E3
:10038000109271008AE690E0CCDE8091600090913E
:1003900061008856914030F0109261001092600028
:1003A00070926300A8956ECF5527002480FF02C08D
:1003B000060E571F660F771F6115710521F0969580
:1003C0008795009799F7952F802D0895AA1BBB1B41
:1003D00051E107C0AA1FBB1FA617B70710F0A61B45
:1003E000B70B881F991F5A95A9F780959095BC0166
:0803F000CD010895F894FFCF40
:00000001FF
