:1000000009C016C015C014C013C012C012C010C061
:100010000FC058C011241FBECFE9CDBF10E0A0E62D
:10002000B0E001C01D92A538B107E1F7E1D0DFC112
:10003000E7CF1F920F920FB60F9211248F939F93C9
:1000400080916A00882329F180916B008150F9F436
:1000500080916D0090916E0080FF02C0C49A01C033
:10006000C49880916D0090916E00969587959093BD
:100070006E0080936D0080916C00815080936C00C5
:1000800080916C00882311F410926A0083E08093C1
:100090006B008091600090916100019690936100E7
:1000A000809360008091620090916300019690932C
:1000B0006300809362009F918F910F900FBE0F900D
:1000C0001F9018951F920F920FB60F9211248F93C5
:1000D00081E0809364008F910F900FBE0F901F906E
:1000E0001895982F80916A008823E1F783E0809328
:1000F0006B008AE080936C00892F90E0880F991F35
:10010000926090936E0080936D0081E080936A000E
:10011000089583E487B984E886B988E084BB369A79
:100120003699FECF83E083B9339A0895E199FECFE3
:100130001CBA8EBB6DBBE29AE19A08951F938EE3C1
:10014000D0DF10E08EE3182788E09CE810FB1695BE
:100150000EF419278A95D1F780916900C2DF80914A
:10016000680090916900192798E02CE810FB16951B
:100170000EF412279A95D1F7B4DF80916800182702
:1001800088E09CE810FB16950EF419278A95D1F7A4
:1001900080918400A6DF80918300909184001927CC
:1001A00098E02CE810FB16950EF412279A95D1F7DB
:1001B00098DF80918300182788E09CE810FB169553
:1001C0000EF419278A95D1F7809167008ADF909104
:1001D0006700812F892798E02CE880FB86950EF434
:1001E00082279A95D1F77DDF8EEE7BDF1F910895F0
:1001F000FF920F931F93DF93CF9300D0CDB7DEB75D
:10020000EFE6F0E08CE291E08193919320E0E33817
:10021000F207D1F72FE088E190E00FB6F894A895A7
:1002200081BD0FBE21BDA89587E387BB10926A00F0
:10023000C49A10926400109265006BDF9FB7F89427
:1002400083E886BD85EA86BF19BC81E28FBD89E05F
:1002500083BF89B7846089BF12BE9FBFE199FECF7B
:100260001EBAE09A8DB381BFE199FECF81E08EBBCB
:10027000E09A8DB38130A9F4E199FECF82E08EBB84
:10028000E09A3DB3E199FECF83E08EBBE09A2DB3B7
:10029000932F80E0820F911D9093840080938300C0
:1002A00029C0609183007091840040E050E0369A4C
:1002B0003699FECF84B18A8385B1898389819A81F9
:1002C000382F20E0F901E90FF11D6E0F7F1F4F5FFE
:1002D0005F4F4A30510559F7609383007093840053
:1002E00082E0672F23DF83E0609183001FDF81E0DE
:1002F00061E01CDF7894FF24F3948091600090917A
:100300006100849720F0109261001092600080914B
:10031000600090916100029720F419BC1092650072
:1003200007C080916500882319F4F0926500369A21
:1003300080916400882309F1109264008091670025
:1003400089BD84B18A8385B18983209166008981C2
:100350009A81E22FF0E0EE0FFF1FE159FF4F182FB7
:1003600000E0A801490F511D518340832F5F209366
:1003700066002A3010F01092660080916200909121
:1003800063008856914088F11092630010926200D9
:10039000EFE6F0E020E030E081919191280F391FE5
:1003A00080E0E338F807C1F73093690020936800D4
:1003B00040918300509184004217530748F4809184
:1003C0006700853A28F4809167008F5F809367000B
:1003D0004217530748F080916700882329F08091E5
:1003E0006700815080936700A9DEA89586CFF894B6
:0203F000FFCF3D
:00000001FF
