:1000000009C016C015C014C013C012C012C010C061
:100010000FC058C011241FBECFE9CDBF10E0A0E62D
:10002000B0E001C01D92A538B107E1F7E1D0C6C12B
:10003000E7CF1F920F920FB60F9211248F939F93C9
:1000400080916C00882329F180916D008150F9F432
:1000500080916F009091700080FF02C0C49A01C02F
:10006000C49880916F0090917000969587959093B9
:10007000700080936F0080916E00815080936E00BD
:1000800080916E00882311F410926C0083E08093BD
:100090006D008091600090916100019690936100E5
:1000A000809360008091620090916300019690932C
:1000B0006300809362009F918F910F900FBE0F900D
:1000C0001F9018951F920F920FB60F9211248F93C5
:1000D00081E0809364008F910F900FBE0F901F906E
:1000E0001895982F80916C008823E1F783E0809326
:1000F0006D008AE080936E00892F90E0880F991F31
:1001000092609093700080936F0081E080936C0008
:10011000089583E487B984E886B988E084BB369A79
:100120003699FECF83E083B9339A0895E199FECFE3
:100130001CBA8EBB6DBBE29AE19A08951F938EE3C1
:10014000D0DF10E08EE3182788E09CE810FB1695BE
:100150000EF419278A95D1F780916B00C2DF809148
:100160006A0090916B00192798E02CE810FB169517
:100170000EF412279A95D1F7B4DF80916A00182700
:1001800088E09CE810FB16950EF419278A95D1F7A4
:1001900080916700A6DF8091660090916700192723
:1001A00098E02CE810FB16950EF412279A95D1F7DB
:1001B00098DF80916600182788E09CE810FB169570
:1001C0000EF419278A95D1F7809169008ADF909102
:1001D0006900812F892798E02CE880FB86950EF432
:1001E00082279A95D1F77DDF8EEE7BDF1F910895F0
:1001F000FF920F931F93CF93DF93E1E7F0E08FE639
:1002000090E08193919320E0E538F207D1F72FE059
:1002100088E190E00FB6F894A89581BD0FBE21BD8E
:10022000A89587E387BB10926C00C49A1092640073
:10023000109265006EDF9FB7F89483E886BD85EA6B
:1002400086BF19BC81E28FBD89E083BF89B7846016
:1002500089BF12BE9FBFE199FECF1EBAE09A8DB34F
:1002600081BFE199FECF81E08EBBE09A8DB38130F2
:10027000A9F4E199FECF82E08EBBE09A3DB3E1990B
:10028000FECF83E08EBBE09A2DB3932F80E0820FE8
:10029000911D909367008093660025C06091660071
:1002A0007091670040E050E0369A3699FECF85B1F4
:1002B00094B1382F20E0F901E90FF11D6E0F7F1F77
:1002C0004F5F5F4F4A30510579F770936700609335
:1002D000660082E0672F2ADF83E06091660026DFF8
:1002E00081E061E023DF7894FF24F3948091600043
:1002F00090916100849720F010926100109260004C
:1003000080916000909161000A9720F419BC1092CE
:10031000650007C080916500882319F4F09265009C
:10032000369A80916400882329F11092640020910C
:10033000680085B194B1E22FF0E0EE0FFF1FEF5897
:10034000FF4FD82FC0E0AE01490F511D51834083AC
:100350002F5F209368002A3010F01092680085B15A
:1003600094B1182F00E0F801E90FF11DF0936B0034
:10037000E0936A00809162009091630088569140FA
:10038000D8F0109263001092620020916A003091C0
:100390006B00809166009091670040916900821720
:1003A000930720F4453A38F44F5F03C0442319F013
:1003B000415040936900C2DEA89598CFF894FFCFD2
:00000001FF
