:1000000009C016C015C014C013C012C012C010C061
:100010000FC056C011241FBECFE9CDBF10E0A0E62F
:10002000B0E001C01D92A936B107E1F785D0E2C169
:10003000E7CF1F920F920FB60F9211248F939F93C9
:1000400080916400882329F1809165008150F9F442
:10005000809167009091680080FF02C0C49A01C03F
:10006000C4988091670090916800969587959093C9
:1000700068008093670080916600815080936600DD
:1000800080916600882311F41092640083E08093CD
:10009000650080916300813019F4369A10926300F4
:1000A000809160009091610001969093610080932F
:1000B00060009F918F910F900FBE0F901F90189529
:1000C0001F920F920FB60F9211248F9381E08093AD
:1000D00062008F910F900FBE0F901F901895982F70
:1000E000809164008823E1F783E0809365008AE0D3
:1000F00080936600892F90E0880F991F92609093FB
:1001000068008093670081E080936400089583E431
:1001100087B984E886B988E084BB369A3699FECFE1
:1001200083E083B9339A0895E199FECF1CBA8EBB60
:100130006DBBE29AE19A08952F923F924F925F929F
:100140006F927F928F929F92AF92BF92CF92DF92E7
:10015000EF92FF920F931F93DF93CF9300D000D0C5
:10016000CDB7DEB72FE088E190E00FB6F894A89500
:1001700081BD0FBE21BDA89587E387BB10926400A7
:10018000C49A1092620010926300C1DF9FB7F89486
:1001900083E886BD85EA86BF19BC81E28FBD89E010
:1001A00083BF89B7846089BF12BE9FBFE199FECF2C
:1001B0001EBAE09A8DB381BFE199FECF81E08EBB7C
:1001C000E09A8DB38130B1F4E199FECF82E08EBB2D
:1001D000E09A8DB38983E199FECF83E08EBBE09AEC
:1001E0008DB38A8329813A81922F80E05C01A30E2E
:1001F000B11C36C040E050E060E070E0E0E0F0E0CC
:10020000369A3699FECF84B18A8385B189838981F4
:100210009A81382F20E0D901A90FB11DCD01AA275D
:1002200097FDA095BA2F480F591F6A1F7B1F319663
:10023000EA30F10529F7CB01BA012AE030E040E0CD
:1002400050E09BD0122F032F82E0632F6DDF83E0FD
:10025000612F6ADF81E061E067DF812F902F5C0111
:10026000789499242501662477246CEE262E6FEF6E
:10027000362E2A0C3B1C88248394809162008130A6
:1002800009F05AC01092620084B18A8385B18983D3
:1002900089819A81D82ECC249601290F311D3C8367
:1002A0002B838B819C8168E670E155D0A0E0B0E0A3
:1002B000BC01CD01A301920182D079018A018B8119
:1002C0009C81A816B90640F489B5853A18F489B519
:1002D0008F5F89BD5FE4952E3BE9E31630E1F306BD
:1002E00030E0030730E0130710F041E5942E8B81D6
:1002F0009C81A816B90680F08FE4981629F48B81AA
:100300009C818215930510F433E4932E89B58823DC
:1003100019F089B5815089BD8EE3E1DE892DDFDEDC
:100320008DE2DDDE8F2DDBDE8E2DD9DE89B5D7DEC9
:100330008DE0D5DE80E0D3DE809160009091610099
:100340008856914030F010926100109260008092C7
:100350006300A89592CF5527002480FF02C0060EA7
:10036000571F660F771F6115710521F096958795C8
:10037000009799F7952F802D0895A1E21A2EAA1BB8
:10038000BB1BFD010DC0AA1FBB1FEE1FFF1FA21745
:10039000B307E407F50720F0A21BB30BE40BF50B42
:1003A000661F771F881F991F1A9469F760957095CB
:1003B000809590959B01AC01BD01CF01089597FBFD
:1003C000092E05260ED057FD04D0D7DF0AD0001C19
:1003D00038F450954095309521953F4F4F4F5F4FE2
:1003E0000895F6F790958095709561957F4F8F4FA2
:0803F0009F4F0895F894FFCF20
:00000001FF
